{
  "_format": "hh-sol-artifact-1",
  "contractName": "Oracle",
  "sourceName": "contracts/core/Oracle.sol",
  "abi": [
    {
      "inputs": [
        {
          "internalType": "uint256",
          "name": "_initialEVIXLevel",
          "type": "uint256"
        },
        {
          "internalType": "address",
          "name": "_squeethAddress",
          "type": "address"
        }
      ],
      "stateMutability": "nonpayable",
      "type": "constructor"
    },
    {
      "inputs": [
        {
          "internalType": "uint256",
          "name": "_newSpotLevel",
          "type": "uint256"
        }
      ],
      "name": "manualUpdateSpotLevel",
      "outputs": [],
      "stateMutability": "nonpayable",
      "type": "function"
    },
    {
      "inputs": [],
      "name": "owner",
      "outputs": [
        {
          "internalType": "address",
          "name": "",
          "type": "address"
        }
      ],
      "stateMutability": "view",
      "type": "function"
    },
    {
      "inputs": [],
      "name": "spotEVIXLevel",
      "outputs": [
        {
          "internalType": "uint256",
          "name": "",
          "type": "uint256"
        }
      ],
      "stateMutability": "view",
      "type": "function"
    },
    {
      "inputs": [],
      "name": "squeethAddress",
      "outputs": [
        {
          "internalType": "address",
          "name": "",
          "type": "address"
        }
      ],
      "stateMutability": "view",
      "type": "function"
    },
    {
      "inputs": [],
      "name": "updateSpotFromSqueeth",
      "outputs": [],
      "stateMutability": "nonpayable",
      "type": "function"
    }
  ],
  "bytecode": "0x608060405234801561001057600080fd5b506040516108d03803806108d08339818101604052810190610032919061015b565b8160008190555080600260006101000a81548173ffffffffffffffffffffffffffffffffffffffff021916908373ffffffffffffffffffffffffffffffffffffffff16021790555033600160006101000a81548173ffffffffffffffffffffffffffffffffffffffff021916908373ffffffffffffffffffffffffffffffffffffffff160217905550505061019b565b600080fd5b6000819050919050565b6100da816100c7565b81146100e557600080fd5b50565b6000815190506100f7816100d1565b92915050565b600073ffffffffffffffffffffffffffffffffffffffff82169050919050565b6000610128826100fd565b9050919050565b6101388161011d565b811461014357600080fd5b50565b6000815190506101558161012f565b92915050565b60008060408385031215610172576101716100c2565b5b6000610180858286016100e8565b925050602061019185828601610146565b9150509250929050565b610726806101aa6000396000f3fe608060405234801561001057600080fd5b50600436106100575760003560e01c80636d9edcec1461005c5780638da5cb5b1461007a578063d3fdb5b714610098578063de526338146100a2578063f7d5837b146100be575b600080fd5b6100646100dc565b6040516100719190610554565b60405180910390f35b610082610102565b60405161008f9190610554565b60405180910390f35b6100a0610128565b005b6100bc60048036038101906100b791906105aa565b6101c2565b005b6100c66101cc565b6040516100d391906105e6565b60405180910390f35b600260009054906101000a900473ffffffffffffffffffffffffffffffffffffffff1681565b600160009054906101000a900473ffffffffffffffffffffffffffffffffffffffff1681565b600067094354dff403fdd0905060006709467d3063d3c2299050600061014d836101d2565b905061015b82600f0b6101d2565b91506000610170673f611bd6290b14e86101d2565b905060006101898385610183919061063d565b85610221565b9050600061019f610199836102aa565b846102d3565b90506101aa8161033e565b67ffffffffffffffff16600081905550505050505050565b8060008190555050565b60005481565b60007fffffffffffffffffffffffffffffffffffffffffffffffff8000000000000000821215801561020c5750677fffffffffffffff8213155b61021557600080fd5b604082901b9050919050565b60008082600f0b0361023257600080fd5b600082600f0b604085600f0b901b8161024e5761024d6106c1565b5b0590507fffffffffffffffffffffffffffffffff80000000000000000000000000000000600f0b811215801561029757506f7fffffffffffffffffffffffffffffff600f0b8113155b6102a057600080fd5b8091505092915050565b60008082600f0b12156102bc57600080fd5b6102cc604083600f0b901b61035f565b9050919050565b600080604083600f0b85600f0b02901d90507fffffffffffffffffffffffffffffffff80000000000000000000000000000000600f0b811215801561032b57506f7fffffffffffffffffffffffffffffff600f0b8113155b61033457600080fd5b8091505092915050565b60008082600f0b121561035057600080fd5b604082600f0b901d9050919050565b6000808203610371576000905061050e565b600082905060006001905070010000000000000000000000000000000082106103a357608082901c9150604081901b90505b6801000000000000000082106103c257604082901c9150602081901b90505b64010000000082106103dd57602082901c9150601081901b90505b6201000082106103f657601082901c9150600881901b90505b610100821061040e57600882901c9150600481901b90505b6010821061042557600482901c9150600281901b90505b6008821061043557600181901b90505b6001818581610447576104466106c1565b5b048201901c905060018185816104605761045f6106c1565b5b048201901c90506001818581610479576104786106c1565b5b048201901c90506001818581610492576104916106c1565b5b048201901c905060018185816104ab576104aa6106c1565b5b048201901c905060018185816104c4576104c36106c1565b5b048201901c905060018185816104dd576104dc6106c1565b5b048201901c905060008185816104f6576104f56106c1565b5b0490508082106105065780610508565b815b93505050505b919050565b600073ffffffffffffffffffffffffffffffffffffffff82169050919050565b600061053e82610513565b9050919050565b61054e81610533565b82525050565b60006020820190506105696000830184610545565b92915050565b600080fd5b6000819050919050565b61058781610574565b811461059257600080fd5b50565b6000813590506105a48161057e565b92915050565b6000602082840312156105c0576105bf61056f565b5b60006105ce84828501610595565b91505092915050565b6105e081610574565b82525050565b60006020820190506105fb60008301846105d7565b92915050565b600081600f0b9050919050565b7f4e487b7100000000000000000000000000000000000000000000000000000000600052601160045260246000fd5b600061064882610601565b915061065383610601565b9250827fffffffffffffffffffffffffffffffff800000000000000000000000000000000182126000841215161561068e5761068d61060e565b5b826f7fffffffffffffffffffffffffffffff0182136000841216156106b6576106b561060e565b5b828203905092915050565b7f4e487b7100000000000000000000000000000000000000000000000000000000600052601260045260246000fdfea26469706673582212204ff9bc451c87d97c139061f8ea3fefd7754f2f7334328d776cecf4e67246bebd64736f6c634300080d0033",
  "linkReferences": {},
  "deployedLinkReferences": {}
}