{
  "_format": "hh-sol-artifact-1",
  "contractName": "Oracle",
  "sourceName": "contracts/core/Oracle.sol",
  "abi": [
    {
      "inputs": [
        {
          "internalType": "uint256",
          "name": "_initialEVIXLevel",
          "type": "uint256"
        }
      ],
      "stateMutability": "nonpayable",
      "type": "constructor"
    },
    {
      "inputs": [],
      "name": "owner",
      "outputs": [
        {
          "internalType": "address",
          "name": "",
          "type": "address"
        }
      ],
      "stateMutability": "view",
      "type": "function"
    },
    {
      "inputs": [],
      "name": "spotEVIXLevel",
      "outputs": [
        {
          "internalType": "uint256",
          "name": "",
          "type": "uint256"
        }
      ],
      "stateMutability": "view",
      "type": "function"
    },
    {
      "inputs": [
        {
          "internalType": "uint256",
          "name": "_newSpotLevel",
          "type": "uint256"
        }
      ],
      "name": "updateSpotLevel",
      "outputs": [],
      "stateMutability": "nonpayable",
      "type": "function"
    }
  ],
  "bytecode": "0x608060405234801561001057600080fd5b506040516103fc3803806103fc833981810160405281019061003291906100bb565b8060008190555033600160006101000a81548173ffffffffffffffffffffffffffffffffffffffff021916908373ffffffffffffffffffffffffffffffffffffffff160217905550506100e8565b600080fd5b6000819050919050565b61009881610085565b81146100a357600080fd5b50565b6000815190506100b58161008f565b92915050565b6000602082840312156100d1576100d0610080565b5b60006100df848285016100a6565b91505092915050565b610305806100f76000396000f3fe608060405234801561001057600080fd5b50600436106100415760003560e01c80637940b951146100465780638da5cb5b14610062578063f7d5837b14610080575b600080fd5b610060600480360381019061005b919061019f565b61009e565b005b61006a610138565b604051610077919061020d565b60405180910390f35b61008861015e565b6040516100959190610237565b60405180910390f35b600160009054906101000a900473ffffffffffffffffffffffffffffffffffffffff1673ffffffffffffffffffffffffffffffffffffffff163373ffffffffffffffffffffffffffffffffffffffff161461012e576040517f08c379a0000000000000000000000000000000000000000000000000000000008152600401610125906102af565b60405180910390fd5b8060008190555050565b600160009054906101000a900473ffffffffffffffffffffffffffffffffffffffff1681565b60005481565b600080fd5b6000819050919050565b61017c81610169565b811461018757600080fd5b50565b60008135905061019981610173565b92915050565b6000602082840312156101b5576101b4610164565b5b60006101c38482850161018a565b91505092915050565b600073ffffffffffffffffffffffffffffffffffffffff82169050919050565b60006101f7826101cc565b9050919050565b610207816101ec565b82525050565b600060208201905061022260008301846101fe565b92915050565b61023181610169565b82525050565b600060208201905061024c6000830184610228565b92915050565b600082825260208201905092915050565b7f4f6e6c79206f776e65722063616e207570646174650000000000000000000000600082015250565b6000610299601583610252565b91506102a482610263565b602082019050919050565b600060208201905081810360008301526102c88161028c565b905091905056fea26469706673582212207353ef60f5dca06ffacc4aa3a439daeb75cd15d5d1cb076fd6fd9d179728c5c264736f6c634300080d0033",
  "linkReferences": {},
  "deployedLinkReferences": {}
}