{
  "_format": "hh-sol-artifact-1",
  "contractName": "Oracle",
  "sourceName": "contracts/core/Oracle.sol",
  "abi": [
    {
      "inputs": [
        {
          "internalType": "uint256",
          "name": "_initialEVIXLevel",
          "type": "uint256"
        },
        {
          "internalType": "address",
          "name": "_squeethAddress",
          "type": "address"
        }
      ],
      "stateMutability": "nonpayable",
      "type": "constructor"
    },
    {
      "inputs": [
        {
          "internalType": "uint256",
          "name": "_newSpotLevel",
          "type": "uint256"
        }
      ],
      "name": "manualUpdateSpotLevel",
      "outputs": [],
      "stateMutability": "nonpayable",
      "type": "function"
    },
    {
      "inputs": [],
      "name": "owner",
      "outputs": [
        {
          "internalType": "address",
          "name": "",
          "type": "address"
        }
      ],
      "stateMutability": "view",
      "type": "function"
    },
    {
      "inputs": [],
      "name": "spotEVIXLevel",
      "outputs": [
        {
          "internalType": "uint256",
          "name": "",
          "type": "uint256"
        }
      ],
      "stateMutability": "view",
      "type": "function"
    },
    {
      "inputs": [],
      "name": "squeethAddress",
      "outputs": [
        {
          "internalType": "address",
          "name": "",
          "type": "address"
        }
      ],
      "stateMutability": "view",
      "type": "function"
    },
    {
      "inputs": [
        {
          "internalType": "uint128",
          "name": "_currentNormalization",
          "type": "uint128"
        },
        {
          "internalType": "uint256",
          "name": "_expectedNormalization",
          "type": "uint256"
        }
      ],
      "name": "updateSpotFromSqueeth",
      "outputs": [],
      "stateMutability": "nonpayable",
      "type": "function"
    }
  ],
  "bytecode": "0x608060405234801561001057600080fd5b50604051610a14380380610a148339818101604052810190610032919061015b565b8160008190555080600260006101000a81548173ffffffffffffffffffffffffffffffffffffffff021916908373ffffffffffffffffffffffffffffffffffffffff16021790555033600160006101000a81548173ffffffffffffffffffffffffffffffffffffffff021916908373ffffffffffffffffffffffffffffffffffffffff160217905550505061019b565b600080fd5b6000819050919050565b6100da816100c7565b81146100e557600080fd5b50565b6000815190506100f7816100d1565b92915050565b600073ffffffffffffffffffffffffffffffffffffffff82169050919050565b6000610128826100fd565b9050919050565b6101388161011d565b811461014357600080fd5b50565b6000815190506101558161012f565b92915050565b60008060408385031215610172576101716100c2565b5b6000610180858286016100e8565b925050602061019185828601610146565b9150509250929050565b61086a806101aa6000396000f3fe608060405234801561001057600080fd5b50600436106100575760003560e01c80636d9edcec1461005c5780638da5cb5b1461007a578063d6fb830414610098578063de526338146100b4578063f7d5837b146100d0575b600080fd5b6100646100ee565b6040516100719190610597565b60405180910390f35b610082610114565b60405161008f9190610597565b60405180910390f35b6100b260048036038101906100ad9190610635565b61013a565b005b6100ce60048036038101906100c99190610675565b6101e0565b005b6100d86101ea565b6040516100e591906106b1565b60405180910390f35b600260009054906101000a900473ffffffffffffffffffffffffffffffffffffffff1681565b600160009054906101000a900473ffffffffffffffffffffffffffffffffffffffff1681565b60008190506000839050600061014f836101f0565b905061015d82600f0b6101f0565b91506000610172673f611bd6290b14e86101f0565b9050600061019361018e84866101889190610708565b8661023f565b6102c8565b905060006101a96101a3836102ed565b84610316565b905066038d7ea4c680006101bc82610381565b67ffffffffffffffff166101d091906107bb565b6000819055505050505050505050565b8060008190555050565b60005481565b60007fffffffffffffffffffffffffffffffffffffffffffffffff8000000000000000821215801561022a5750677fffffffffffffff8213155b61023357600080fd5b604082901b9050919050565b60008082600f0b0361025057600080fd5b600082600f0b604085600f0b901b8161026c5761026b61078c565b5b0590507fffffffffffffffffffffffffffffffff80000000000000000000000000000000600f0b81121580156102b557506f7fffffffffffffffffffffffffffffff600f0b8113155b6102be57600080fd5b8091505092915050565b60008082600f0b12156102e457816102df906107ec565b6102e6565b815b9050919050565b60008082600f0b12156102ff57600080fd5b61030f604083600f0b901b6103a2565b9050919050565b600080604083600f0b85600f0b02901d90507fffffffffffffffffffffffffffffffff80000000000000000000000000000000600f0b811215801561036e57506f7fffffffffffffffffffffffffffffff600f0b8113155b61037757600080fd5b8091505092915050565b60008082600f0b121561039357600080fd5b604082600f0b901d9050919050565b60008082036103b45760009050610551565b600082905060006001905070010000000000000000000000000000000082106103e657608082901c9150604081901b90505b68010000000000000000821061040557604082901c9150602081901b90505b640100000000821061042057602082901c9150601081901b90505b62010000821061043957601082901c9150600881901b90505b610100821061045157600882901c9150600481901b90505b6010821061046857600482901c9150600281901b90505b6008821061047857600181901b90505b600181858161048a5761048961078c565b5b048201901c905060018185816104a3576104a261078c565b5b048201901c905060018185816104bc576104bb61078c565b5b048201901c905060018185816104d5576104d461078c565b5b048201901c905060018185816104ee576104ed61078c565b5b048201901c905060018185816105075761050661078c565b5b048201901c905060018185816105205761051f61078c565b5b048201901c905060008185816105395761053861078c565b5b049050808210610549578061054b565b815b93505050505b919050565b600073ffffffffffffffffffffffffffffffffffffffff82169050919050565b600061058182610556565b9050919050565b61059181610576565b82525050565b60006020820190506105ac6000830184610588565b92915050565b600080fd5b60006fffffffffffffffffffffffffffffffff82169050919050565b6105dc816105b7565b81146105e757600080fd5b50565b6000813590506105f9816105d3565b92915050565b6000819050919050565b610612816105ff565b811461061d57600080fd5b50565b60008135905061062f81610609565b92915050565b6000806040838503121561064c5761064b6105b2565b5b600061065a858286016105ea565b925050602061066b85828601610620565b9150509250929050565b60006020828403121561068b5761068a6105b2565b5b600061069984828501610620565b91505092915050565b6106ab816105ff565b82525050565b60006020820190506106c660008301846106a2565b92915050565b600081600f0b9050919050565b7f4e487b7100000000000000000000000000000000000000000000000000000000600052601160045260246000fd5b6000610713826106cc565b915061071e836106cc565b9250827fffffffffffffffffffffffffffffffff8000000000000000000000000000000001821260008412151615610759576107586106d9565b5b826f7fffffffffffffffffffffffffffffff018213600084121615610781576107806106d9565b5b828203905092915050565b7f4e487b7100000000000000000000000000000000000000000000000000000000600052601260045260246000fd5b60006107c6826105ff565b91506107d1836105ff565b9250826107e1576107e061078c565b5b828204905092915050565b60006107f7826106cc565b91507fffffffffffffffffffffffffffffffff800000000000000000000000000000008203610829576108286106d9565b5b81600003905091905056fea26469706673582212208f7791cee492d01ff6c6f2fb4ad6635df6d2baf854de6eff249f5e318af40c8c64736f6c634300080d0033",
  "linkReferences": {},
  "deployedLinkReferences": {}
}