{
  "_format": "hh-sol-artifact-1",
  "contractName": "PerpMarginPool",
  "sourceName": "contracts/core/PerpMarginPool.sol",
  "abi": [
    {
      "inputs": [
        {
          "internalType": "uint256",
          "name": "_initMarginLevel",
          "type": "uint256"
        },
        {
          "internalType": "uint256",
          "name": "_lowRiskMargin",
          "type": "uint256"
        },
        {
          "internalType": "uint256",
          "name": "_highRiskMargin",
          "type": "uint256"
        },
        {
          "internalType": "uint256",
          "name": "_liquidationLevel",
          "type": "uint256"
        },
        {
          "internalType": "address",
          "name": "_oracleAddress",
          "type": "address"
        },
        {
          "internalType": "address",
          "name": "_perpVPoolAddress",
          "type": "address"
        },
        {
          "internalType": "address",
          "name": "_USDCAddress",
          "type": "address"
        }
      ],
      "stateMutability": "nonpayable",
      "type": "constructor"
    },
    {
      "inputs": [],
      "name": "USDCAddress",
      "outputs": [
        {
          "internalType": "address",
          "name": "",
          "type": "address"
        }
      ],
      "stateMutability": "view",
      "type": "function"
    },
    {
      "inputs": [
        {
          "internalType": "address",
          "name": "_user",
          "type": "address"
        }
      ],
      "name": "_checkCollateralLevel",
      "outputs": [],
      "stateMutability": "nonpayable",
      "type": "function"
    },
    {
      "inputs": [
        {
          "internalType": "address",
          "name": "_user",
          "type": "address"
        }
      ],
      "name": "_settleFunding",
      "outputs": [],
      "stateMutability": "nonpayable",
      "type": "function"
    },
    {
      "inputs": [],
      "name": "closeLongPosition",
      "outputs": [],
      "stateMutability": "nonpayable",
      "type": "function"
    },
    {
      "inputs": [],
      "name": "closeShortPosition",
      "outputs": [],
      "stateMutability": "nonpayable",
      "type": "function"
    },
    {
      "inputs": [
        {
          "internalType": "uint256",
          "name": "_collateralAmount",
          "type": "uint256"
        }
      ],
      "name": "depositCollateral",
      "outputs": [],
      "stateMutability": "nonpayable",
      "type": "function"
    },
    {
      "inputs": [
        {
          "internalType": "address",
          "name": "",
          "type": "address"
        }
      ],
      "name": "freeCollateralMap",
      "outputs": [
        {
          "internalType": "uint256",
          "name": "",
          "type": "uint256"
        }
      ],
      "stateMutability": "view",
      "type": "function"
    },
    {
      "inputs": [
        {
          "internalType": "address",
          "name": "",
          "type": "address"
        }
      ],
      "name": "liquidationRisk",
      "outputs": [
        {
          "internalType": "bool",
          "name": "",
          "type": "bool"
        }
      ],
      "stateMutability": "view",
      "type": "function"
    },
    {
      "inputs": [],
      "name": "marginHighRiskLevel",
      "outputs": [
        {
          "internalType": "uint256",
          "name": "",
          "type": "uint256"
        }
      ],
      "stateMutability": "view",
      "type": "function"
    },
    {
      "inputs": [],
      "name": "marginInit",
      "outputs": [
        {
          "internalType": "uint256",
          "name": "",
          "type": "uint256"
        }
      ],
      "stateMutability": "view",
      "type": "function"
    },
    {
      "inputs": [],
      "name": "marginLiquidationLevel",
      "outputs": [
        {
          "internalType": "uint256",
          "name": "",
          "type": "uint256"
        }
      ],
      "stateMutability": "view",
      "type": "function"
    },
    {
      "inputs": [],
      "name": "marginLowRiskLevel",
      "outputs": [
        {
          "internalType": "uint256",
          "name": "",
          "type": "uint256"
        }
      ],
      "stateMutability": "view",
      "type": "function"
    },
    {
      "inputs": [
        {
          "internalType": "uint256",
          "name": "_amountVPerpUSDC",
          "type": "uint256"
        }
      ],
      "name": "openLongPosition",
      "outputs": [],
      "stateMutability": "nonpayable",
      "type": "function"
    },
    {
      "inputs": [
        {
          "internalType": "uint256",
          "name": "_amountVPerpUSDC",
          "type": "uint256"
        }
      ],
      "name": "openShortPosition",
      "outputs": [],
      "stateMutability": "nonpayable",
      "type": "function"
    },
    {
      "inputs": [
        {
          "internalType": "address",
          "name": "",
          "type": "address"
        }
      ],
      "name": "positions",
      "outputs": [
        {
          "internalType": "int256",
          "name": "amountVPerp",
          "type": "int256"
        },
        {
          "internalType": "int256",
          "name": "fundingPNL",
          "type": "int256"
        },
        {
          "internalType": "uint256",
          "name": "tradedPrice",
          "type": "uint256"
        },
        {
          "internalType": "uint256",
          "name": "collateralAmount",
          "type": "uint256"
        }
      ],
      "stateMutability": "view",
      "type": "function"
    },
    {
      "inputs": [
        {
          "internalType": "uint256",
          "name": "_amountVPerpUSDC",
          "type": "uint256"
        }
      ],
      "name": "provideLiquidity",
      "outputs": [],
      "stateMutability": "nonpayable",
      "type": "function"
    },
    {
      "inputs": [],
      "name": "removeLiquidity",
      "outputs": [],
      "stateMutability": "nonpayable",
      "type": "function"
    },
    {
      "inputs": [
        {
          "internalType": "uint256",
          "name": "_collateralAmount",
          "type": "uint256"
        }
      ],
      "name": "returnCollateral",
      "outputs": [],
      "stateMutability": "nonpayable",
      "type": "function"
    }
  ],
  "bytecode": "0x60806040523480156200001157600080fd5b5060405162002d0638038062002d068339818101604052810190620000379190620003c4565b600087116200007d576040517f08c379a00000000000000000000000000000000000000000000000000000000081526004016200007490620004d8565b60405180910390fd5b60008611620000c3576040517f08c379a0000000000000000000000000000000000000000000000000000000008152600401620000ba90620004d8565b60405180910390fd5b6000851162000109576040517f08c379a00000000000000000000000000000000000000000000000000000000081526004016200010090620004d8565b60405180910390fd5b600084116200014f576040517f08c379a00000000000000000000000000000000000000000000000000000000081526004016200014690620004d8565b60405180910390fd5b600073ffffffffffffffffffffffffffffffffffffffff168373ffffffffffffffffffffffffffffffffffffffff1603620001c1576040517f08c379a0000000000000000000000000000000000000000000000000000000008152600401620001b8906200054a565b60405180910390fd5b600073ffffffffffffffffffffffffffffffffffffffff168273ffffffffffffffffffffffffffffffffffffffff160362000233576040517f08c379a00000000000000000000000000000000000000000000000000000000081526004016200022a906200054a565b60405180910390fd5b8660048190555085600581905550846006819055508360078190555082600860006101000a81548173ffffffffffffffffffffffffffffffffffffffff021916908373ffffffffffffffffffffffffffffffffffffffff16021790555081600960006101000a81548173ffffffffffffffffffffffffffffffffffffffff021916908373ffffffffffffffffffffffffffffffffffffffff16021790555080600360006101000a81548173ffffffffffffffffffffffffffffffffffffffff021916908373ffffffffffffffffffffffffffffffffffffffff160217905550505050505050506200056c565b600080fd5b6000819050919050565b620003398162000324565b81146200034557600080fd5b50565b60008151905062000359816200032e565b92915050565b600073ffffffffffffffffffffffffffffffffffffffff82169050919050565b60006200038c826200035f565b9050919050565b6200039e816200037f565b8114620003aa57600080fd5b50565b600081519050620003be8162000393565b92915050565b600080600080600080600060e0888a031215620003e657620003e56200031f565b5b6000620003f68a828b0162000348565b9750506020620004098a828b0162000348565b96505060406200041c8a828b0162000348565b95505060606200042f8a828b0162000348565b9450506080620004428a828b01620003ad565b93505060a0620004558a828b01620003ad565b92505060c0620004688a828b01620003ad565b91505092959891949750929550565b600082825260208201905092915050565b7f52617465206d757374206265203e300000000000000000000000000000000000600082015250565b6000620004c0600f8362000477565b9150620004cd8262000488565b602082019050919050565b60006020820190508181036000830152620004f381620004b1565b9050919050565b7f496e76616c6964206f7261636c65000000000000000000000000000000000000600082015250565b600062000532600e8362000477565b91506200053f82620004fa565b602082019050919050565b60006020820190508181036000830152620005658162000523565b9050919050565b61278a806200057c6000396000f3fe608060405234801561001057600080fd5b50600436106101165760003560e01c8063769dcd12116100a2578063cb6ec4a311610071578063cb6ec4a3146102a6578063e9303209146102c4578063eb521a4c146102e2578063f20ef8bb146102fe578063f97b65da1461031c57610116565b8063769dcd12146102205780638168d77014610250578063b39ffb6b1461026e578063bad4a01f1461028a57610116565b806353baf0ad116100e957806353baf0ad146101a157806355f57510146101ab57806367b9a286146101de5780637106bf7e146101e857806371539cf31461020457610116565b806301266ecb1461011b5780632aa906381461014b57806341357e181461016757806344e02dbc14610185575b600080fd5b61013560048036038101906101309190611e02565b610326565b6040516101429190611e4a565b60405180910390f35b61016560048036038101906101609190611e9b565b610346565b005b61016f610718565b60405161017c9190611ed7565b60405180910390f35b61019f600480360381019061019a9190611e9b565b61071e565b005b6101a961089a565b005b6101c560048036038101906101c09190611e02565b610c32565b6040516101d59493929190611f0b565b60405180910390f35b6101e6610c62565b005b61020260048036038101906101fd9190611e02565b610d5d565b005b61021e60048036038101906102199190611e02565b610fc8565b005b61023a60048036038101906102359190611e02565b611295565b6040516102479190611ed7565b60405180910390f35b6102586112ad565b6040516102659190611ed7565b60405180910390f35b61028860048036038101906102839190611e9b565b6112b3565b005b6102a4600480360381019061029f9190611e9b565b6115ed565b005b6102ae6117c7565b6040516102bb9190611ed7565b60405180910390f35b6102cc6117cd565b6040516102d99190611f5f565b60405180910390f35b6102fc60048036038101906102f79190611e9b565b6117f3565b005b61030661199e565b6040516103139190611ed7565b60405180910390f35b6103246119a4565b005b60026020528060005260406000206000915054906101000a900460ff1681565b806004546103549190611fa9565b600160003373ffffffffffffffffffffffffffffffffffffffff1673ffffffffffffffffffffffffffffffffffffffff1681526020019081526020016000205410156103d5576040517f08c379a00000000000000000000000000000000000000000000000000000000081526004016103cc90612060565b60405180910390fd5b60008060003373ffffffffffffffffffffffffffffffffffffffff1673ffffffffffffffffffffffffffffffffffffffff1681526020019081526020016000206000015414610459576040517f08c379a0000000000000000000000000000000000000000000000000000000008152600401610450906120cc565b60405180910390fd5b806004546104679190611fa9565b600160003373ffffffffffffffffffffffffffffffffffffffff1673ffffffffffffffffffffffffffffffffffffffff16815260200190815260200160002060008282546104b591906120ec565b92505081905550600360009054906101000a900473ffffffffffffffffffffffffffffffffffffffff1673ffffffffffffffffffffffffffffffffffffffff1663095ea7b3600960009054906101000a900473ffffffffffffffffffffffffffffffffffffffff16836040518363ffffffff1660e01b815260040161053b929190612120565b6020604051808303816000875af115801561055a573d6000803e3d6000fd5b505050506040513d601f19601f8201168201806040525081019061057e9190612175565b50600080600960009054906101000a900473ffffffffffffffffffffffffffffffffffffffff1673ffffffffffffffffffffffffffffffffffffffff1663d96a094a846040518263ffffffff1660e01b81526004016105dd9190611ed7565b60408051808303816000875af11580156105fb573d6000803e3d6000fd5b505050506040513d601f19601f8201168201806040525081019061061f91906121b7565b915091506040518060800160405280828152602001600081526020018381526020018460045461064f9190611fa9565b8152506000803373ffffffffffffffffffffffffffffffffffffffff1673ffffffffffffffffffffffffffffffffffffffff168152602001908152602001600020600082015181600001556020820151816001015560408201518160020155606082015181600301559050506000600260003373ffffffffffffffffffffffffffffffffffffffff1673ffffffffffffffffffffffffffffffffffffffff16815260200190815260200160002060006101000a81548160ff021916908315150217905550505050565b60045481565b80600160003373ffffffffffffffffffffffffffffffffffffffff1673ffffffffffffffffffffffffffffffffffffffff1681526020019081526020016000205410156107a0576040517f08c379a000000000000000000000000000000000000000000000000000000000815260040161079790612243565b60405180910390fd5b80600160003373ffffffffffffffffffffffffffffffffffffffff1673ffffffffffffffffffffffffffffffffffffffff16815260200190815260200160002060008282546107ef91906120ec565b92505081905550600360009054906101000a900473ffffffffffffffffffffffffffffffffffffffff1673ffffffffffffffffffffffffffffffffffffffff1663a9059cbb33836040518363ffffffff1660e01b8152600401610853929190612120565b6020604051808303816000875af1158015610872573d6000803e3d6000fd5b505050506040513d601f19601f820116820180604052508101906108969190612175565b5050565b60008060003373ffffffffffffffffffffffffffffffffffffffff1673ffffffffffffffffffffffffffffffffffffffff168152602001908152602001600020600001541361091e576040517f08c379a0000000000000000000000000000000000000000000000000000000008152600401610915906122af565b60405180910390fd5b600080600960009054906101000a900473ffffffffffffffffffffffffffffffffffffffff1673ffffffffffffffffffffffffffffffffffffffff1663e77fff166000803373ffffffffffffffffffffffffffffffffffffffff1673ffffffffffffffffffffffffffffffffffffffff168152602001908152602001600020600001546040518263ffffffff1660e01b81526004016109bd9190611ed7565b60408051808303816000875af11580156109db573d6000803e3d6000fd5b505050506040513d601f19601f820116820180604052508101906109ff91906121b7565b915091506000803373ffffffffffffffffffffffffffffffffffffffff1673ffffffffffffffffffffffffffffffffffffffff168152602001908152602001600020600301546000803373ffffffffffffffffffffffffffffffffffffffff1673ffffffffffffffffffffffffffffffffffffffff168152602001908152602001600020600101546000803373ffffffffffffffffffffffffffffffffffffffff1673ffffffffffffffffffffffffffffffffffffffff1681526020019081526020016000206002015484610ad491906120ec565b83610adf9190611fa9565b610ae991906122cf565b610af39190612363565b600160003373ffffffffffffffffffffffffffffffffffffffff1673ffffffffffffffffffffffffffffffffffffffff1681526020019081526020016000206000828254610b419190612363565b92505081905550604051806080016040528060008152602001600081526020016000815260200160008152506000803373ffffffffffffffffffffffffffffffffffffffff1673ffffffffffffffffffffffffffffffffffffffff168152602001908152602001600020600082015181600001556020820151816001015560408201518160020155606082015181600301559050506000600260003373ffffffffffffffffffffffffffffffffffffffff1673ffffffffffffffffffffffffffffffffffffffff16815260200190815260200160002060006101000a81548160ff0219169083151502179055505050565b60006020528060005260406000206000915090508060000154908060010154908060020154908060030154905084565b6000600960009054906101000a900473ffffffffffffffffffffffffffffffffffffffff1673ffffffffffffffffffffffffffffffffffffffff1663d798f86e336040518263ffffffff1660e01b8152600401610cbf9190611f5f565b6020604051808303816000875af1158015610cde573d6000803e3d6000fd5b505050506040513d601f19601f82011682018060405250810190610d0291906123b9565b905080600160003373ffffffffffffffffffffffffffffffffffffffff1673ffffffffffffffffffffffffffffffffffffffff1681526020019081526020016000206000828254610d539190612363565b9250508190555050565b60008060008373ffffffffffffffffffffffffffffffffffffffff1673ffffffffffffffffffffffffffffffffffffffff1681526020019081526020016000206000015403610de1576040517f08c379a0000000000000000000000000000000000000000000000000000000008152600401610dd890612432565b60405180910390fd5b6000600960009054906101000a900473ffffffffffffffffffffffffffffffffffffffff1673ffffffffffffffffffffffffffffffffffffffff1663a035b1fe6040518163ffffffff1660e01b8152600401602060405180830381865afa158015610e50573d6000803e3d6000fd5b505050506040513d601f19601f82011682018060405250810190610e7491906123b9565b90506000600860009054906101000a900473ffffffffffffffffffffffffffffffffffffffff1673ffffffffffffffffffffffffffffffffffffffff1663f7d5837b6040518163ffffffff1660e01b8152600401602060405180830381865afa158015610ee5573d6000803e3d6000fd5b505050506040513d601f19601f82011682018060405250810190610f0991906123b9565b90506000808473ffffffffffffffffffffffffffffffffffffffff1673ffffffffffffffffffffffffffffffffffffffff168152602001908152602001600020600001548282610f599190612452565b610f6391906124e6565b6000808573ffffffffffffffffffffffffffffffffffffffff1673ffffffffffffffffffffffffffffffffffffffff1681526020019081526020016000206001016000828254610fb391906122cf565b92505081905550610fc383610fc8565b505050565b60008060008373ffffffffffffffffffffffffffffffffffffffff1673ffffffffffffffffffffffffffffffffffffffff168152602001908152602001600020604051806080016040529081600082015481526020016001820154815260200160028201548152602001600382015481525050905060008160600151826020015161105391906122cf565b9050600960009054906101000a900473ffffffffffffffffffffffffffffffffffffffff1673ffffffffffffffffffffffffffffffffffffffff1663a035b1fe6040518163ffffffff1660e01b8152600401602060405180830381865afa1580156110c2573d6000803e3d6000fd5b505050506040513d601f19601f820116820180604052508101906110e691906123b9565b6110f38360000151611d7a565b60075461110091906124e6565b61110a91906124e6565b811361111e5761111983611d9c565b611290565b600960009054906101000a900473ffffffffffffffffffffffffffffffffffffffff1673ffffffffffffffffffffffffffffffffffffffff1663a035b1fe6040518163ffffffff1660e01b8152600401602060405180830381865afa15801561118b573d6000803e3d6000fd5b505050506040513d601f19601f820116820180604052508101906111af91906123b9565b6111bc8360000151611d7a565b6006546111c991906124e6565b6111d391906124e6565b8113611236576001600260008573ffffffffffffffffffffffffffffffffffffffff1673ffffffffffffffffffffffffffffffffffffffff16815260200190815260200160002060006101000a81548160ff02191690831515021790555061128f565b6000600260008573ffffffffffffffffffffffffffffffffffffffff1673ffffffffffffffffffffffffffffffffffffffff16815260200190815260200160002060006101000a81548160ff0219169083151502179055505b5b505050565b60016020528060005260406000206000915090505481565b60065481565b806004546112c19190611fa9565b600160003373ffffffffffffffffffffffffffffffffffffffff1673ffffffffffffffffffffffffffffffffffffffff168152602001908152602001600020541015611342576040517f08c379a000000000000000000000000000000000000000000000000000000000815260040161133990612060565b60405180910390fd5b60008060003373ffffffffffffffffffffffffffffffffffffffff1673ffffffffffffffffffffffffffffffffffffffff16815260200190815260200160002060000154146113c6576040517f08c379a00000000000000000000000000000000000000000000000000000000081526004016113bd906120cc565b60405180910390fd5b806004546113d49190611fa9565b600160003373ffffffffffffffffffffffffffffffffffffffff1673ffffffffffffffffffffffffffffffffffffffff168152602001908152602001600020600082825461142291906120ec565b92505081905550600080600960009054906101000a900473ffffffffffffffffffffffffffffffffffffffff1673ffffffffffffffffffffffffffffffffffffffff1663e4849b32846040518263ffffffff1660e01b81526004016114879190611ed7565b60408051808303816000875af11580156114a5573d6000803e3d6000fd5b505050506040513d601f19601f820116820180604052508101906114c991906121b7565b915091506040518060800160405280827fffffffffffffffffffffffffffffffffffffffffffffffffffffffffffffffff61150491906124e6565b815260200160008152602001838152602001846004546115249190611fa9565b8152506000803373ffffffffffffffffffffffffffffffffffffffff1673ffffffffffffffffffffffffffffffffffffffff168152602001908152602001600020600082015181600001556020820151816001015560408201518160020155606082015181600301559050506000600260003373ffffffffffffffffffffffffffffffffffffffff1673ffffffffffffffffffffffffffffffffffffffff16815260200190815260200160002060006101000a81548160ff021916908315150217905550505050565b80600360009054906101000a900473ffffffffffffffffffffffffffffffffffffffff1673ffffffffffffffffffffffffffffffffffffffff166370a08231336040518263ffffffff1660e01b81526004016116499190611f5f565b602060405180830381865afa158015611666573d6000803e3d6000fd5b505050506040513d601f19601f8201168201806040525081019061168a91906123b9565b10156116cb576040517f08c379a00000000000000000000000000000000000000000000000000000000081526004016116c290612649565b60405180910390fd5b80600160003373ffffffffffffffffffffffffffffffffffffffff1673ffffffffffffffffffffffffffffffffffffffff168152602001908152602001600020600082825461171a9190612363565b92505081905550600360009054906101000a900473ffffffffffffffffffffffffffffffffffffffff1673ffffffffffffffffffffffffffffffffffffffff166323b872dd3330846040518463ffffffff1660e01b815260040161178093929190612669565b6020604051808303816000875af115801561179f573d6000803e3d6000fd5b505050506040513d601f19601f820116820180604052508101906117c39190612175565b5050565b60075481565b600360009054906101000a900473ffffffffffffffffffffffffffffffffffffffff1681565b80600160003373ffffffffffffffffffffffffffffffffffffffff1673ffffffffffffffffffffffffffffffffffffffff168152602001908152602001600020600082825461184291906120ec565b92505081905550600360009054906101000a900473ffffffffffffffffffffffffffffffffffffffff1673ffffffffffffffffffffffffffffffffffffffff1663095ea7b3600960009054906101000a900473ffffffffffffffffffffffffffffffffffffffff16836040518363ffffffff1660e01b81526004016118c8929190612120565b6020604051808303816000875af11580156118e7573d6000803e3d6000fd5b505050506040513d601f19601f8201168201806040525081019061190b9190612175565b50600960009054906101000a900473ffffffffffffffffffffffffffffffffffffffff1673ffffffffffffffffffffffffffffffffffffffff16635fea612033836040518363ffffffff1660e01b8152600401611969929190612120565b600060405180830381600087803b15801561198357600080fd5b505af1158015611997573d6000803e3d6000fd5b5050505050565b60055481565b60008060003373ffffffffffffffffffffffffffffffffffffffff1673ffffffffffffffffffffffffffffffffffffffff1681526020019081526020016000206000015412611a28576040517f08c379a0000000000000000000000000000000000000000000000000000000008152600401611a1f906126ec565b60405180910390fd5b6000600960009054906101000a900473ffffffffffffffffffffffffffffffffffffffff1673ffffffffffffffffffffffffffffffffffffffff166316f1d4286000803373ffffffffffffffffffffffffffffffffffffffff1673ffffffffffffffffffffffffffffffffffffffff168152602001908152602001600020600001546040518263ffffffff1660e01b8152600401611ac69190611ed7565b60408051808303816000875af1158015611ae4573d6000803e3d6000fd5b505050506040513d601f19601f82011682018060405250810190611b0891906121b7565b5090506000803373ffffffffffffffffffffffffffffffffffffffff1673ffffffffffffffffffffffffffffffffffffffff168152602001908152602001600020600301546000803373ffffffffffffffffffffffffffffffffffffffff1673ffffffffffffffffffffffffffffffffffffffff16815260200190815260200160002060010154826000803373ffffffffffffffffffffffffffffffffffffffff1673ffffffffffffffffffffffffffffffffffffffff16815260200190815260200160002060020154611bdc91906120ec565b6000803373ffffffffffffffffffffffffffffffffffffffff1673ffffffffffffffffffffffffffffffffffffffff16815260200190815260200160002060000154611c2891906124e6565b611c3291906122cf565b611c3c91906122cf565b600160003373ffffffffffffffffffffffffffffffffffffffff1673ffffffffffffffffffffffffffffffffffffffff1681526020019081526020016000206000828254611c8a9190612363565b92505081905550604051806080016040528060008152602001600081526020016000815260200160008152506000803373ffffffffffffffffffffffffffffffffffffffff1673ffffffffffffffffffffffffffffffffffffffff168152602001908152602001600020600082015181600001556020820151816001015560408201518160020155606082015181600301559050506000600260003373ffffffffffffffffffffffffffffffffffffffff1673ffffffffffffffffffffffffffffffffffffffff16815260200190815260200160002060006101000a81548160ff02191690831515021790555050565b600080821215611d935781611d8e9061270c565b611d95565b815b9050919050565b50565b600080fd5b600073ffffffffffffffffffffffffffffffffffffffff82169050919050565b6000611dcf82611da4565b9050919050565b611ddf81611dc4565b8114611dea57600080fd5b50565b600081359050611dfc81611dd6565b92915050565b600060208284031215611e1857611e17611d9f565b5b6000611e2684828501611ded565b91505092915050565b60008115159050919050565b611e4481611e2f565b82525050565b6000602082019050611e5f6000830184611e3b565b92915050565b6000819050919050565b611e7881611e65565b8114611e8357600080fd5b50565b600081359050611e9581611e6f565b92915050565b600060208284031215611eb157611eb0611d9f565b5b6000611ebf84828501611e86565b91505092915050565b611ed181611e65565b82525050565b6000602082019050611eec6000830184611ec8565b92915050565b6000819050919050565b611f0581611ef2565b82525050565b6000608082019050611f206000830187611efc565b611f2d6020830186611efc565b611f3a6040830185611ec8565b611f476060830184611ec8565b95945050505050565b611f5981611dc4565b82525050565b6000602082019050611f746000830184611f50565b92915050565b7f4e487b7100000000000000000000000000000000000000000000000000000000600052601160045260246000fd5b6000611fb482611e65565b9150611fbf83611e65565b9250817fffffffffffffffffffffffffffffffffffffffffffffffffffffffffffffffff0483118215151615611ff857611ff7611f7a565b5b828202905092915050565b600082825260208201905092915050565b7f4e6f7420656e6f75676820636f6c6c61746572616c0000000000000000000000600082015250565b600061204a601583612003565b915061205582612014565b602082019050919050565b600060208201905081810360008301526120798161203d565b9050919050565b7f416c72656164792068617665206f70656e20706f736974696f6e000000000000600082015250565b60006120b6601a83612003565b91506120c182612080565b602082019050919050565b600060208201905081810360008301526120e5816120a9565b9050919050565b60006120f782611e65565b915061210283611e65565b92508282101561211557612114611f7a565b5b828203905092915050565b60006040820190506121356000830185611f50565b6121426020830184611ec8565b9392505050565b61215281611e2f565b811461215d57600080fd5b50565b60008151905061216f81612149565b92915050565b60006020828403121561218b5761218a611d9f565b5b600061219984828501612160565b91505092915050565b6000815190506121b181611e6f565b92915050565b600080604083850312156121ce576121cd611d9f565b5b60006121dc858286016121a2565b92505060206121ed858286016121a2565b9150509250929050565b7f4e6f7420656e6f756768206672656520636f6c6c61746572616c000000000000600082015250565b600061222d601a83612003565b9150612238826121f7565b602082019050919050565b6000602082019050818103600083015261225c81612220565b9050919050565b7f446f6e277420686176652061206c6f6e6720706f736974696f6e000000000000600082015250565b6000612299601a83612003565b91506122a482612263565b602082019050919050565b600060208201905081810360008301526122c88161228c565b9050919050565b60006122da82611ef2565b91506122e583611ef2565b9250817f7fffffffffffffffffffffffffffffffffffffffffffffffffffffffffffffff038313600083121516156123205761231f611f7a565b5b817f800000000000000000000000000000000000000000000000000000000000000003831260008312161561235857612357611f7a565b5b828201905092915050565b600061236e82611e65565b915061237983611e65565b9250827fffffffffffffffffffffffffffffffffffffffffffffffffffffffffffffffff038211156123ae576123ad611f7a565b5b828201905092915050565b6000602082840312156123cf576123ce611d9f565b5b60006123dd848285016121a2565b91505092915050565b7f4e6f206f70656e20706f736974696f6e73000000000000000000000000000000600082015250565b600061241c601183612003565b9150612427826123e6565b602082019050919050565b6000602082019050818103600083015261244b8161240f565b9050919050565b600061245d82611ef2565b915061246883611ef2565b9250827f8000000000000000000000000000000000000000000000000000000000000000018212600084121516156124a3576124a2611f7a565b5b827f7fffffffffffffffffffffffffffffffffffffffffffffffffffffffffffffff0182136000841216156124db576124da611f7a565b5b828203905092915050565b60006124f182611ef2565b91506124fc83611ef2565b9250827f7fffffffffffffffffffffffffffffffffffffffffffffffffffffffffffffff048211600084136000841316161561253b5761253a611f7a565b5b817f8000000000000000000000000000000000000000000000000000000000000000058312600084126000841316161561257857612577611f7a565b5b827f800000000000000000000000000000000000000000000000000000000000000005821260008413600084121616156125b5576125b4611f7a565b5b827f7fffffffffffffffffffffffffffffffffffffffffffffffffffffffffffffff05821260008412600084121616156125f2576125f1611f7a565b5b828202905092915050565b7f6e6f7420656e6f75676820555344430000000000000000000000000000000000600082015250565b6000612633600f83612003565b915061263e826125fd565b602082019050919050565b6000602082019050818103600083015261266281612626565b9050919050565b600060608201905061267e6000830186611f50565b61268b6020830185611f50565b6126986040830184611ec8565b949350505050565b7f446f6e2774206861766520612073686f727420706f736974696f6e0000000000600082015250565b60006126d6601b83612003565b91506126e1826126a0565b602082019050919050565b60006020820190508181036000830152612705816126c9565b9050919050565b600061271782611ef2565b91507f8000000000000000000000000000000000000000000000000000000000000000820361274957612748611f7a565b5b81600003905091905056fea26469706673582212205bbafcb7870a9ed0718bba4fe59518517de45bb7bffff8c99795e580cefe2f3264736f6c634300080d0033",
  "linkReferences": {},
  "deployedLinkReferences": {}
}