{
  "_format": "hh-sol-artifact-1",
  "contractName": "PerpVPool",
  "sourceName": "contracts/core/PerpVPool.sol",
  "abi": [
    {
      "inputs": [
        {
          "internalType": "uint256",
          "name": "_initPrice",
          "type": "uint256"
        },
        {
          "internalType": "address",
          "name": "USDCAddress",
          "type": "address"
        }
      ],
      "stateMutability": "nonpayable",
      "type": "constructor"
    },
    {
      "anonymous": false,
      "inputs": [
        {
          "indexed": false,
          "internalType": "uint256",
          "name": "price",
          "type": "uint256"
        },
        {
          "indexed": false,
          "internalType": "int256",
          "name": "amount",
          "type": "int256"
        }
      ],
      "name": "TradedVPerp",
      "type": "event"
    },
    {
      "inputs": [
        {
          "internalType": "uint256",
          "name": "_amountUSDC",
          "type": "uint256"
        }
      ],
      "name": "buy",
      "outputs": [
        {
          "internalType": "uint256",
          "name": "",
          "type": "uint256"
        },
        {
          "internalType": "uint256",
          "name": "",
          "type": "uint256"
        }
      ],
      "stateMutability": "nonpayable",
      "type": "function"
    },
    {
      "inputs": [
        {
          "internalType": "uint256",
          "name": "_amountVPerp",
          "type": "uint256"
        }
      ],
      "name": "buyAmountVPerp",
      "outputs": [
        {
          "internalType": "uint256",
          "name": "",
          "type": "uint256"
        },
        {
          "internalType": "uint256",
          "name": "",
          "type": "uint256"
        }
      ],
      "stateMutability": "nonpayable",
      "type": "function"
    },
    {
      "inputs": [],
      "name": "poolUSDC",
      "outputs": [
        {
          "internalType": "uint256",
          "name": "",
          "type": "uint256"
        }
      ],
      "stateMutability": "view",
      "type": "function"
    },
    {
      "inputs": [],
      "name": "poolVPerp",
      "outputs": [
        {
          "internalType": "uint256",
          "name": "",
          "type": "uint256"
        }
      ],
      "stateMutability": "view",
      "type": "function"
    },
    {
      "inputs": [],
      "name": "price",
      "outputs": [
        {
          "internalType": "uint256",
          "name": "",
          "type": "uint256"
        }
      ],
      "stateMutability": "view",
      "type": "function"
    },
    {
      "inputs": [
        {
          "internalType": "address",
          "name": "_user",
          "type": "address"
        },
        {
          "internalType": "uint256",
          "name": "_amountUSDC",
          "type": "uint256"
        }
      ],
      "name": "provideLiquidity",
      "outputs": [],
      "stateMutability": "nonpayable",
      "type": "function"
    },
    {
      "inputs": [
        {
          "internalType": "address",
          "name": "_user",
          "type": "address"
        }
      ],
      "name": "removeLiquidity",
      "outputs": [
        {
          "internalType": "uint256",
          "name": "",
          "type": "uint256"
        }
      ],
      "stateMutability": "nonpayable",
      "type": "function"
    },
    {
      "inputs": [
        {
          "internalType": "uint256",
          "name": "_amountUSDC",
          "type": "uint256"
        }
      ],
      "name": "sell",
      "outputs": [
        {
          "internalType": "uint256",
          "name": "",
          "type": "uint256"
        },
        {
          "internalType": "uint256",
          "name": "",
          "type": "uint256"
        }
      ],
      "stateMutability": "nonpayable",
      "type": "function"
    },
    {
      "inputs": [
        {
          "internalType": "uint256",
          "name": "_amountVPerp",
          "type": "uint256"
        }
      ],
      "name": "sellAmountVPerp",
      "outputs": [
        {
          "internalType": "uint256",
          "name": "",
          "type": "uint256"
        },
        {
          "internalType": "uint256",
          "name": "",
          "type": "uint256"
        }
      ],
      "stateMutability": "nonpayable",
      "type": "function"
    },
    {
      "inputs": [],
      "name": "tUSDCAddress",
      "outputs": [
        {
          "internalType": "address",
          "name": "",
          "type": "address"
        }
      ],
      "stateMutability": "view",
      "type": "function"
    }
  ],
  "bytecode": "0x60806040523480156200001157600080fd5b50604051620016e1380380620016e183398181016040528101906200003791906200013c565b816000819055506000600181905550600060028190555080600360006101000a81548173ffffffffffffffffffffffffffffffffffffffff021916908373ffffffffffffffffffffffffffffffffffffffff160217905550505062000183565b600080fd5b6000819050919050565b620000b1816200009c565b8114620000bd57600080fd5b50565b600081519050620000d181620000a6565b92915050565b600073ffffffffffffffffffffffffffffffffffffffff82169050919050565b60006200010482620000d7565b9050919050565b6200011681620000f7565b81146200012257600080fd5b50565b60008151905062000136816200010b565b92915050565b6000806040838503121562000156576200015562000097565b5b60006200016685828601620000c0565b9250506020620001798582860162000125565b9150509250929050565b61154e80620001936000396000f3fe608060405234801561001057600080fd5b506004361061009d5760003560e01c8063d96a094a11610066578063d96a094a1461015b578063e4849b321461018c578063e77fff16146101bd578063f06c7bcb146101ee578063f2d6cdc91461020c5761009d565b806202f4b0146100a257806316f1d428146100c05780635fea6120146100f1578063a035b1fe1461010d578063d798f86e1461012b575b600080fd5b6100aa61022a565b6040516100b79190610e98565b60405180910390f35b6100da60048036038101906100d59190610ee4565b610230565b6040516100e8929190610f11565b60405180910390f35b61010b60048036038101906101069190610f98565b6104d1565b005b6101156107f2565b6040516101229190610e98565b60405180910390f35b61014560048036038101906101409190610fd8565b6107f8565b6040516101529190610e98565b60405180910390f35b61017560048036038101906101709190610ee4565b6107ff565b604051610183929190610f11565b60405180910390f35b6101a660048036038101906101a19190610ee4565b610abc565b6040516101b4929190610f11565b60405180910390f35b6101d760048036038101906101d29190610ee4565b610c8c565b6040516101e5929190610f11565b60405180910390f35b6101f6610e53565b6040516102039190611014565b60405180910390f35b610214610e79565b6040516102219190610e98565b60405180910390f35b60015481565b6000808260025411610277576040517f08c379a000000000000000000000000000000000000000000000000000000000815260040161026e9061108c565b60405180910390fd5b6000548361028591906110db565b600360009054906101000a900473ffffffffffffffffffffffffffffffffffffffff1673ffffffffffffffffffffffffffffffffffffffff166370a08231336040518263ffffffff1660e01b81526004016102e09190611014565b602060405180830381865afa1580156102fd573d6000803e3d6000fd5b505050506040513d601f19601f82011682018060405250810190610321919061114a565b1015610362576040517f08c379a0000000000000000000000000000000000000000000000000000000008152600401610359906111c3565b60405180910390fd5b600060025460015461037491906110db565b905060008460025461038691906111e3565b9050600081836103969190611246565b9050600360009054906101000a900473ffffffffffffffffffffffffffffffffffffffff1673ffffffffffffffffffffffffffffffffffffffff166323b872dd3330600154856103e691906111e3565b6040518463ffffffff1660e01b815260040161040493929190611277565b6020604051808303816000875af1158015610423573d6000803e3d6000fd5b505050506040513d601f19601f8201168201806040525081019061044791906112e6565b506000866001548361045991906111e3565b6104639190611246565b905081600181905550826002819055506002546001546104839190611246565b6000819055507f4fd944c4d7ec2b4ae50f879883656e3ed51e30c9e2aba4e22b184f22536c2c9281886040516104ba92919061132c565b60405180910390a180879550955050505050915091565b6000600460008473ffffffffffffffffffffffffffffffffffffffff1673ffffffffffffffffffffffffffffffffffffffff1681526020019081526020016000206000015414801561056557506000600460008473ffffffffffffffffffffffffffffffffffffffff1673ffffffffffffffffffffffffffffffffffffffff16815260200190815260200160002060010154145b6105a4576040517f08c379a000000000000000000000000000000000000000000000000000000000815260040161059b906113a1565b60405180910390fd5b80600360009054906101000a900473ffffffffffffffffffffffffffffffffffffffff1673ffffffffffffffffffffffffffffffffffffffff166370a08231846040518263ffffffff1660e01b81526004016106009190611014565b602060405180830381865afa15801561061d573d6000803e3d6000fd5b505050506040513d601f19601f82011682018060405250810190610641919061114a565b1015610682576040517f08c379a00000000000000000000000000000000000000000000000000000000081526004016106799061140d565b60405180910390fd5b600360009054906101000a900473ffffffffffffffffffffffffffffffffffffffff1673ffffffffffffffffffffffffffffffffffffffff166323b872dd3330846040518463ffffffff1660e01b81526004016106e193929190611277565b6020604051808303816000875af1158015610700573d6000803e3d6000fd5b505050506040513d601f19601f8201168201806040525081019061072491906112e6565b508060016000828254610737919061142d565b925050819055506000548161074c9190611246565b6002600082825461075d919061142d565b925050819055506040518060600160405280828152602001600054836107839190611246565b8152602001600054815250600460008473ffffffffffffffffffffffffffffffffffffffff1673ffffffffffffffffffffffffffffffffffffffff1681526020019081526020016000206000820151816000015560208201518160010155604082015181600201559050505050565b60005481565b6000919050565b6000808260005460025461081391906110db565b11610853576040517f08c379a000000000000000000000000000000000000000000000000000000000815260040161084a9061108c565b60405180910390fd5b82600360009054906101000a900473ffffffffffffffffffffffffffffffffffffffff1673ffffffffffffffffffffffffffffffffffffffff166370a08231336040518263ffffffff1660e01b81526004016108af9190611014565b602060405180830381865afa1580156108cc573d6000803e3d6000fd5b505050506040513d601f19601f820116820180604052508101906108f0919061114a565b1015610931576040517f08c379a0000000000000000000000000000000000000000000000000000000008152600401610928906111c3565b60405180910390fd5b600060025460015461094391906110db565b9050600084600154610955919061142d565b826109609190611246565b905060008160025461097291906111e3565b90508560016000828254610986919061142d565b92505081905550806002600082825461099f91906111e3565b925050819055506002546001546109b69190611246565b600081905550600360009054906101000a900473ffffffffffffffffffffffffffffffffffffffff1673ffffffffffffffffffffffffffffffffffffffff166323b872dd3330896040518463ffffffff1660e01b8152600401610a1b93929190611277565b6020604051808303816000875af1158015610a3a573d6000803e3d6000fd5b505050506040513d601f19601f82011682018060405250810190610a5e91906112e6565b507f4fd944c4d7ec2b4ae50f879883656e3ed51e30c9e2aba4e22b184f22536c2c928187610a8c9190611246565b82604051610a9b92919061132c565b60405180910390a18086610aaf9190611246565b8194509450505050915091565b6000808260015411610b03576040517f08c379a0000000000000000000000000000000000000000000000000000000008152600401610afa906114cf565b60405180910390fd5b6000600254600154610b1591906110db565b9050600084600154610b2791906111e3565b82610b329190611246565b9050600060025482610b4491906111e3565b90508560016000828254610b5891906111e3565b925050819055508060026000828254610b71919061142d565b92505081905550600254600154610b889190611246565b600081905550600360009054906101000a900473ffffffffffffffffffffffffffffffffffffffff1673ffffffffffffffffffffffffffffffffffffffff1663a9059cbb33886040518363ffffffff1660e01b8152600401610beb9291906114ef565b6020604051808303816000875af1158015610c0a573d6000803e3d6000fd5b505050506040513d601f19601f82011682018060405250810190610c2e91906112e6565b507f4fd944c4d7ec2b4ae50f879883656e3ed51e30c9e2aba4e22b184f22536c2c928187610c5c9190611246565b82604051610c6b92919061132c565b60405180910390a18086610c7f9190611246565b8194509450505050915091565b60008060005483610c9d91906110db565b60015411610ce0576040517f08c379a0000000000000000000000000000000000000000000000000000000008152600401610cd79061108c565b60405180910390fd5b6000600254600154610cf291906110db565b9050600084600254610d04919061142d565b905060008183610d149190611246565b9050600081600154610d2691906111e3565b905060008783600154610d3991906111e3565b610d439190611246565b90508260018190555083600281905550600254600154610d639190611246565b600081905550600360009054906101000a900473ffffffffffffffffffffffffffffffffffffffff1673ffffffffffffffffffffffffffffffffffffffff1663a9059cbb33846040518363ffffffff1660e01b8152600401610dc69291906114ef565b6020604051808303816000875af1158015610de5573d6000803e3d6000fd5b505050506040513d601f19601f82011682018060405250810190610e0991906112e6565b507f4fd944c4d7ec2b4ae50f879883656e3ed51e30c9e2aba4e22b184f22536c2c928189604051610e3b92919061132c565b60405180910390a18088965096505050505050915091565b600360009054906101000a900473ffffffffffffffffffffffffffffffffffffffff1681565b60025481565b6000819050919050565b610e9281610e7f565b82525050565b6000602082019050610ead6000830184610e89565b92915050565b600080fd5b610ec181610e7f565b8114610ecc57600080fd5b50565b600081359050610ede81610eb8565b92915050565b600060208284031215610efa57610ef9610eb3565b5b6000610f0884828501610ecf565b91505092915050565b6000604082019050610f266000830185610e89565b610f336020830184610e89565b9392505050565b600073ffffffffffffffffffffffffffffffffffffffff82169050919050565b6000610f6582610f3a565b9050919050565b610f7581610f5a565b8114610f8057600080fd5b50565b600081359050610f9281610f6c565b92915050565b60008060408385031215610faf57610fae610eb3565b5b6000610fbd85828601610f83565b9250506020610fce85828601610ecf565b9150509250929050565b600060208284031215610fee57610fed610eb3565b5b6000610ffc84828501610f83565b91505092915050565b61100e81610f5a565b82525050565b60006020820190506110296000830184611005565b92915050565b600082825260208201905092915050565b7f6e6f7420656e6f756768206c6971756964697479000000000000000000000000600082015250565b600061107660148361102f565b915061108182611040565b602082019050919050565b600060208201905081810360008301526110a581611069565b9050919050565b7f4e487b7100000000000000000000000000000000000000000000000000000000600052601160045260246000fd5b60006110e682610e7f565b91506110f183610e7f565b9250817fffffffffffffffffffffffffffffffffffffffffffffffffffffffffffffffff048311821515161561112a576111296110ac565b5b828202905092915050565b60008151905061114481610eb8565b92915050565b6000602082840312156111605761115f610eb3565b5b600061116e84828501611135565b91505092915050565b7f6e6f7420656e6f756768205553444320696e2077616c6c657400000000000000600082015250565b60006111ad60198361102f565b91506111b882611177565b602082019050919050565b600060208201905081810360008301526111dc816111a0565b9050919050565b60006111ee82610e7f565b91506111f983610e7f565b92508282101561120c5761120b6110ac565b5b828203905092915050565b7f4e487b7100000000000000000000000000000000000000000000000000000000600052601260045260246000fd5b600061125182610e7f565b915061125c83610e7f565b92508261126c5761126b611217565b5b828204905092915050565b600060608201905061128c6000830186611005565b6112996020830185611005565b6112a66040830184610e89565b949350505050565b60008115159050919050565b6112c3816112ae565b81146112ce57600080fd5b50565b6000815190506112e0816112ba565b92915050565b6000602082840312156112fc576112fb610eb3565b5b600061130a848285016112d1565b91505092915050565b6000819050919050565b61132681611313565b82525050565b60006040820190506113416000830185610e89565b61134e602083018461131d565b9392505050565b7f557365722068617320706f736974696f6e20616c726561647900000000000000600082015250565b600061138b60198361102f565b915061139682611355565b602082019050919050565b600060208201905081810360008301526113ba8161137e565b9050919050565b7f4e6f7420656e6f756768205553444320696e2077616c6c657400000000000000600082015250565b60006113f760198361102f565b9150611402826113c1565b602082019050919050565b60006020820190508181036000830152611426816113ea565b9050919050565b600061143882610e7f565b915061144383610e7f565b9250827fffffffffffffffffffffffffffffffffffffffffffffffffffffffffffffffff03821115611478576114776110ac565b5b828201905092915050565b7f6e6f7420656e6f677568206c6971756964697479000000000000000000000000600082015250565b60006114b960148361102f565b91506114c482611483565b602082019050919050565b600060208201905081810360008301526114e8816114ac565b9050919050565b60006040820190506115046000830185611005565b6115116020830184610e89565b939250505056fea26469706673582212202724389360a50141c990882108c9e77a0b86512b42d6e5c581ad6ebfa86e678c64736f6c634300080d0033",
  "linkReferences": {},
  "deployedLinkReferences": {}
}