{
  "_format": "hh-sol-artifact-1",
  "contractName": "PerpVPool",
  "sourceName": "contracts/core/PerpVPool.sol",
  "abi": [
    {
      "inputs": [
        {
          "internalType": "uint256",
          "name": "_initPrice",
          "type": "uint256"
        },
        {
          "internalType": "address",
          "name": "USDCAddress",
          "type": "address"
        }
      ],
      "stateMutability": "nonpayable",
      "type": "constructor"
    },
    {
      "anonymous": false,
      "inputs": [
        {
          "indexed": false,
          "internalType": "uint256",
          "name": "price",
          "type": "uint256"
        },
        {
          "indexed": false,
          "internalType": "int256",
          "name": "amount",
          "type": "int256"
        }
      ],
      "name": "TradedVPerp",
      "type": "event"
    },
    {
      "inputs": [
        {
          "internalType": "uint256",
          "name": "_amountUSDC",
          "type": "uint256"
        }
      ],
      "name": "buy",
      "outputs": [
        {
          "internalType": "uint256",
          "name": "",
          "type": "uint256"
        },
        {
          "internalType": "uint256",
          "name": "",
          "type": "uint256"
        }
      ],
      "stateMutability": "nonpayable",
      "type": "function"
    },
    {
      "inputs": [
        {
          "internalType": "uint256",
          "name": "_amountVPerp",
          "type": "uint256"
        }
      ],
      "name": "buyAmountVPerp",
      "outputs": [
        {
          "internalType": "uint256",
          "name": "",
          "type": "uint256"
        },
        {
          "internalType": "uint256",
          "name": "",
          "type": "uint256"
        }
      ],
      "stateMutability": "nonpayable",
      "type": "function"
    },
    {
      "inputs": [],
      "name": "feePercentage",
      "outputs": [
        {
          "internalType": "uint256",
          "name": "",
          "type": "uint256"
        }
      ],
      "stateMutability": "view",
      "type": "function"
    },
    {
      "inputs": [
        {
          "internalType": "address",
          "name": "_user",
          "type": "address"
        }
      ],
      "name": "getPosition",
      "outputs": [
        {
          "components": [
            {
              "internalType": "uint256",
              "name": "amountUSDC",
              "type": "uint256"
            },
            {
              "internalType": "uint256",
              "name": "amountVPerp",
              "type": "uint256"
            },
            {
              "internalType": "uint256",
              "name": "initPrice",
              "type": "uint256"
            },
            {
              "internalType": "uint256",
              "name": "volumeAtPositionInitiation",
              "type": "uint256"
            }
          ],
          "internalType": "struct PerpVPool.LPPosition",
          "name": "",
          "type": "tuple"
        }
      ],
      "stateMutability": "view",
      "type": "function"
    },
    {
      "inputs": [],
      "name": "poolUSDC",
      "outputs": [
        {
          "internalType": "uint256",
          "name": "",
          "type": "uint256"
        }
      ],
      "stateMutability": "view",
      "type": "function"
    },
    {
      "inputs": [],
      "name": "poolVPerp",
      "outputs": [
        {
          "internalType": "uint256",
          "name": "",
          "type": "uint256"
        }
      ],
      "stateMutability": "view",
      "type": "function"
    },
    {
      "inputs": [],
      "name": "price",
      "outputs": [
        {
          "internalType": "uint256",
          "name": "",
          "type": "uint256"
        }
      ],
      "stateMutability": "view",
      "type": "function"
    },
    {
      "inputs": [
        {
          "internalType": "address",
          "name": "_user",
          "type": "address"
        },
        {
          "internalType": "uint256",
          "name": "_amountUSDC",
          "type": "uint256"
        }
      ],
      "name": "provideLiquidity",
      "outputs": [],
      "stateMutability": "nonpayable",
      "type": "function"
    },
    {
      "inputs": [
        {
          "internalType": "address",
          "name": "_user",
          "type": "address"
        }
      ],
      "name": "removeLiquidity",
      "outputs": [
        {
          "internalType": "uint256",
          "name": "",
          "type": "uint256"
        }
      ],
      "stateMutability": "nonpayable",
      "type": "function"
    },
    {
      "inputs": [
        {
          "internalType": "uint256",
          "name": "_amountUSDC",
          "type": "uint256"
        }
      ],
      "name": "sell",
      "outputs": [
        {
          "internalType": "uint256",
          "name": "",
          "type": "uint256"
        },
        {
          "internalType": "uint256",
          "name": "",
          "type": "uint256"
        }
      ],
      "stateMutability": "nonpayable",
      "type": "function"
    },
    {
      "inputs": [
        {
          "internalType": "uint256",
          "name": "_amountVPerp",
          "type": "uint256"
        }
      ],
      "name": "sellAmountVPerp",
      "outputs": [
        {
          "internalType": "uint256",
          "name": "",
          "type": "uint256"
        },
        {
          "internalType": "uint256",
          "name": "",
          "type": "uint256"
        }
      ],
      "stateMutability": "nonpayable",
      "type": "function"
    },
    {
      "inputs": [],
      "name": "tUSDCAddress",
      "outputs": [
        {
          "internalType": "address",
          "name": "",
          "type": "address"
        }
      ],
      "stateMutability": "view",
      "type": "function"
    },
    {
      "inputs": [],
      "name": "tradedVolume",
      "outputs": [
        {
          "internalType": "uint256",
          "name": "",
          "type": "uint256"
        }
      ],
      "stateMutability": "view",
      "type": "function"
    }
  ],
  "bytecode": "0x60806040523480156200001157600080fd5b5060405162001be438038062001be483398181016040528101906200003791906200014c565b81600081905550600060018190555060006002819055506000600381905550600160048190555080600560006101000a81548173ffffffffffffffffffffffffffffffffffffffff021916908373ffffffffffffffffffffffffffffffffffffffff160217905550505062000193565b600080fd5b6000819050919050565b620000c181620000ac565b8114620000cd57600080fd5b50565b600081519050620000e181620000b6565b92915050565b600073ffffffffffffffffffffffffffffffffffffffff82169050919050565b60006200011482620000e7565b9050919050565b620001268162000107565b81146200013257600080fd5b50565b60008151905062000146816200011b565b92915050565b60008060408385031215620001665762000165620000a7565b5b60006200017685828601620000d0565b9250506020620001898582860162000135565b9150509250929050565b611a4180620001a36000396000f3fe608060405234801561001057600080fd5b50600436106100ce5760003560e01c8063c7a8c8dd1161008c578063e4849b3211610066578063e4849b3214610229578063e77fff161461025a578063f06c7bcb1461028b578063f2d6cdc9146102a9576100ce565b8063c7a8c8dd146101aa578063d798f86e146101c8578063d96a094a146101f8576100ce565b806202f4b0146100d357806316c19739146100f157806316f1d428146101215780635fea612014610152578063a001ecdd1461016e578063a035b1fe1461018c575b600080fd5b6100db6102c7565b6040516100e8919061130c565b60405180910390f35b61010b6004803603810190610106919061138a565b6102cd565b604051610118919061141b565b60405180910390f35b61013b60048036038101906101369190611462565b61034e565b60405161014992919061148f565b60405180910390f35b61016c600480360381019061016791906114b8565b610615565b005b610176610948565b604051610183919061130c565b60405180910390f35b61019461094e565b6040516101a1919061130c565b60405180910390f35b6101b2610954565b6040516101bf919061130c565b60405180910390f35b6101e260048036038101906101dd919061138a565b61095a565b6040516101ef919061130c565b60405180910390f35b610212600480360381019061020d9190611462565b610bf3565b60405161022092919061148f565b60405180910390f35b610243600480360381019061023e9190611462565b610ec9565b60405161025192919061148f565b60405180910390f35b610274600480360381019061026f9190611462565b6110b2565b60405161028292919061148f565b60405180910390f35b61029361129f565b6040516102a09190611507565b60405180910390f35b6102b16112c5565b6040516102be919061130c565b60405180910390f35b60015481565b6102d56112cb565b600660008373ffffffffffffffffffffffffffffffffffffffff1673ffffffffffffffffffffffffffffffffffffffff1681526020019081526020016000206040518060800160405290816000820154815260200160018201548152602001600282015481526020016003820154815250509050919050565b6000808260025411610395576040517f08c379a000000000000000000000000000000000000000000000000000000000815260040161038c9061157f565b60405180910390fd5b600054836103a391906115ce565b600560009054906101000a900473ffffffffffffffffffffffffffffffffffffffff1673ffffffffffffffffffffffffffffffffffffffff166370a08231336040518263ffffffff1660e01b81526004016103fe9190611507565b602060405180830381865afa15801561041b573d6000803e3d6000fd5b505050506040513d601f19601f8201168201806040525081019061043f919061163d565b1015610480576040517f08c379a0000000000000000000000000000000000000000000000000000000008152600401610477906116b6565b60405180910390fd5b600060025460015461049291906115ce565b90506000846002546104a491906116d6565b9050600081836104b49190611739565b9050600560009054906101000a900473ffffffffffffffffffffffffffffffffffffffff1673ffffffffffffffffffffffffffffffffffffffff166323b872dd33306001548561050491906116d6565b6040518463ffffffff1660e01b81526004016105229392919061176a565b6020604051808303816000875af1158015610541573d6000803e3d6000fd5b505050506040513d601f19601f8201168201806040525081019061056591906117d9565b506000866001548361057791906116d6565b6105819190611739565b90506001548261059191906116d6565b600360008282546105a29190611806565b9250508190555081600181905550826002819055506002546001546105c79190611739565b6000819055507f4fd944c4d7ec2b4ae50f879883656e3ed51e30c9e2aba4e22b184f22536c2c9281886040516105fe929190611875565b60405180910390a180879550955050505050915091565b6000600660008473ffffffffffffffffffffffffffffffffffffffff1673ffffffffffffffffffffffffffffffffffffffff168152602001908152602001600020600001541480156106a957506000600660008473ffffffffffffffffffffffffffffffffffffffff1673ffffffffffffffffffffffffffffffffffffffff16815260200190815260200160002060010154145b6106e8576040517f08c379a00000000000000000000000000000000000000000000000000000000081526004016106df906118ea565b60405180910390fd5b80600560009054906101000a900473ffffffffffffffffffffffffffffffffffffffff1673ffffffffffffffffffffffffffffffffffffffff166370a08231846040518263ffffffff1660e01b81526004016107449190611507565b602060405180830381865afa158015610761573d6000803e3d6000fd5b505050506040513d601f19601f82011682018060405250810190610785919061163d565b10156107c6576040517f08c379a00000000000000000000000000000000000000000000000000000000081526004016107bd90611956565b60405180910390fd5b80600160008282546107d89190611806565b92505081905550600054816107ed9190611739565b600260008282546107fe9190611806565b92505081905550600560009054906101000a900473ffffffffffffffffffffffffffffffffffffffff1673ffffffffffffffffffffffffffffffffffffffff166323b872dd3330846040518463ffffffff1660e01b81526004016108649392919061176a565b6020604051808303816000875af1158015610883573d6000803e3d6000fd5b505050506040513d601f19601f820116820180604052508101906108a791906117d9565b506040518060800160405280828152602001600054836108c79190611739565b81526020016000548152602001600354815250600660008473ffffffffffffffffffffffffffffffffffffffff1673ffffffffffffffffffffffffffffffffffffffff168152602001908152602001600020600082015181600001556020820151816001015560408201518160020155606082015181600301559050505050565b60045481565b60005481565b60035481565b60008060025460015461096d91906115ce565b90506000600660008573ffffffffffffffffffffffffffffffffffffffff1673ffffffffffffffffffffffffffffffffffffffff16815260200190815260200160002060010154600660008673ffffffffffffffffffffffffffffffffffffffff1673ffffffffffffffffffffffffffffffffffffffff16815260200190815260200160002060000154610a0191906115ce565b905060008282600154610a1491906115ce565b610a1e9190611739565b905060008383600254610a3191906115ce565b610a3b9190611739565b90508160016000828254610a4f91906116d6565b925050819055508060026000828254610a6891906116d6565b925050819055506000600660008873ffffffffffffffffffffffffffffffffffffffff1673ffffffffffffffffffffffffffffffffffffffff16815260200190815260200160002060000154905060405180608001604052806000815260200160008152602001600081526020016000815250600660008973ffffffffffffffffffffffffffffffffffffffff1673ffffffffffffffffffffffffffffffffffffffff16815260200190815260200160002060008201518160000155602082015181600101556040820151816002015560608201518160030155905050600560009054906101000a900473ffffffffffffffffffffffffffffffffffffffff1673ffffffffffffffffffffffffffffffffffffffff1663a9059cbb33836040518363ffffffff1660e01b8152600401610ba2929190611976565b6020604051808303816000875af1158015610bc1573d6000803e3d6000fd5b505050506040513d601f19601f82011682018060405250810190610be591906117d9565b508095505050505050919050565b60008082600054600254610c0791906115ce565b11610c47576040517f08c379a0000000000000000000000000000000000000000000000000000000008152600401610c3e9061157f565b60405180910390fd5b82600560009054906101000a900473ffffffffffffffffffffffffffffffffffffffff1673ffffffffffffffffffffffffffffffffffffffff166370a08231336040518263ffffffff1660e01b8152600401610ca39190611507565b602060405180830381865afa158015610cc0573d6000803e3d6000fd5b505050506040513d601f19601f82011682018060405250810190610ce4919061163d565b1015610d25576040517f08c379a0000000000000000000000000000000000000000000000000000000008152600401610d1c906116b6565b60405180910390fd5b6000600254600154610d3791906115ce565b9050600084600154610d499190611806565b82610d549190611739565b9050600081600254610d6691906116d6565b90508560036000828254610d7a9190611806565b925050819055508560016000828254610d939190611806565b925050819055508060026000828254610dac91906116d6565b92505081905550600254600154610dc39190611739565b600081905550600560009054906101000a900473ffffffffffffffffffffffffffffffffffffffff1673ffffffffffffffffffffffffffffffffffffffff166323b872dd3330896040518463ffffffff1660e01b8152600401610e289392919061176a565b6020604051808303816000875af1158015610e47573d6000803e3d6000fd5b505050506040513d601f19601f82011682018060405250810190610e6b91906117d9565b507f4fd944c4d7ec2b4ae50f879883656e3ed51e30c9e2aba4e22b184f22536c2c928187610e999190611739565b82604051610ea8929190611875565b60405180910390a18086610ebc9190611739565b8194509450505050915091565b6000808260015411610f10576040517f08c379a0000000000000000000000000000000000000000000000000000000008152600401610f07906119eb565b60405180910390fd5b6000600254600154610f2291906115ce565b9050600084600154610f3491906116d6565b82610f3f9190611739565b9050600060025482610f5191906116d6565b90508560036000828254610f659190611806565b925050819055508560016000828254610f7e91906116d6565b925050819055508060026000828254610f979190611806565b92505081905550600254600154610fae9190611739565b600081905550600560009054906101000a900473ffffffffffffffffffffffffffffffffffffffff1673ffffffffffffffffffffffffffffffffffffffff1663a9059cbb33886040518363ffffffff1660e01b8152600401611011929190611976565b6020604051808303816000875af1158015611030573d6000803e3d6000fd5b505050506040513d601f19601f8201168201806040525081019061105491906117d9565b507f4fd944c4d7ec2b4ae50f879883656e3ed51e30c9e2aba4e22b184f22536c2c9281876110829190611739565b82604051611091929190611875565b60405180910390a180866110a59190611739565b8194509450505050915091565b600080600054836110c391906115ce565b60015411611106576040517f08c379a00000000000000000000000000000000000000000000000000000000081526004016110fd9061157f565b60405180910390fd5b600060025460015461111891906115ce565b905060008460025461112a9190611806565b90506000818361113a9190611739565b905060008160015461114c91906116d6565b90506000878360015461115f91906116d6565b6111699190611739565b90508260015461117991906116d6565b6003600082825461118a9190611806565b9250508190555082600181905550836002819055506002546001546111af9190611739565b600081905550600560009054906101000a900473ffffffffffffffffffffffffffffffffffffffff1673ffffffffffffffffffffffffffffffffffffffff1663a9059cbb33846040518363ffffffff1660e01b8152600401611212929190611976565b6020604051808303816000875af1158015611231573d6000803e3d6000fd5b505050506040513d601f19601f8201168201806040525081019061125591906117d9565b507f4fd944c4d7ec2b4ae50f879883656e3ed51e30c9e2aba4e22b184f22536c2c928189604051611287929190611875565b60405180910390a18088965096505050505050915091565b600560009054906101000a900473ffffffffffffffffffffffffffffffffffffffff1681565b60025481565b6040518060800160405280600081526020016000815260200160008152602001600081525090565b6000819050919050565b611306816112f3565b82525050565b600060208201905061132160008301846112fd565b92915050565b600080fd5b600073ffffffffffffffffffffffffffffffffffffffff82169050919050565b60006113578261132c565b9050919050565b6113678161134c565b811461137257600080fd5b50565b6000813590506113848161135e565b92915050565b6000602082840312156113a05761139f611327565b5b60006113ae84828501611375565b91505092915050565b6113c0816112f3565b82525050565b6080820160008201516113dc60008501826113b7565b5060208201516113ef60208501826113b7565b50604082015161140260408501826113b7565b50606082015161141560608501826113b7565b50505050565b600060808201905061143060008301846113c6565b92915050565b61143f816112f3565b811461144a57600080fd5b50565b60008135905061145c81611436565b92915050565b60006020828403121561147857611477611327565b5b60006114868482850161144d565b91505092915050565b60006040820190506114a460008301856112fd565b6114b160208301846112fd565b9392505050565b600080604083850312156114cf576114ce611327565b5b60006114dd85828601611375565b92505060206114ee8582860161144d565b9150509250929050565b6115018161134c565b82525050565b600060208201905061151c60008301846114f8565b92915050565b600082825260208201905092915050565b7f6e6f7420656e6f756768206c6971756964697479000000000000000000000000600082015250565b6000611569601483611522565b915061157482611533565b602082019050919050565b600060208201905081810360008301526115988161155c565b9050919050565b7f4e487b7100000000000000000000000000000000000000000000000000000000600052601160045260246000fd5b60006115d9826112f3565b91506115e4836112f3565b9250817fffffffffffffffffffffffffffffffffffffffffffffffffffffffffffffffff048311821515161561161d5761161c61159f565b5b828202905092915050565b60008151905061163781611436565b92915050565b60006020828403121561165357611652611327565b5b600061166184828501611628565b91505092915050565b7f6e6f7420656e6f756768205553444320696e2077616c6c657400000000000000600082015250565b60006116a0601983611522565b91506116ab8261166a565b602082019050919050565b600060208201905081810360008301526116cf81611693565b9050919050565b60006116e1826112f3565b91506116ec836112f3565b9250828210156116ff576116fe61159f565b5b828203905092915050565b7f4e487b7100000000000000000000000000000000000000000000000000000000600052601260045260246000fd5b6000611744826112f3565b915061174f836112f3565b92508261175f5761175e61170a565b5b828204905092915050565b600060608201905061177f60008301866114f8565b61178c60208301856114f8565b61179960408301846112fd565b949350505050565b60008115159050919050565b6117b6816117a1565b81146117c157600080fd5b50565b6000815190506117d3816117ad565b92915050565b6000602082840312156117ef576117ee611327565b5b60006117fd848285016117c4565b91505092915050565b6000611811826112f3565b915061181c836112f3565b9250827fffffffffffffffffffffffffffffffffffffffffffffffffffffffffffffffff038211156118515761185061159f565b5b828201905092915050565b6000819050919050565b61186f8161185c565b82525050565b600060408201905061188a60008301856112fd565b6118976020830184611866565b9392505050565b7f557365722068617320706f736974696f6e20616c726561647900000000000000600082015250565b60006118d4601983611522565b91506118df8261189e565b602082019050919050565b60006020820190508181036000830152611903816118c7565b9050919050565b7f4e6f7420656e6f756768205553444320696e2077616c6c657400000000000000600082015250565b6000611940601983611522565b915061194b8261190a565b602082019050919050565b6000602082019050818103600083015261196f81611933565b9050919050565b600060408201905061198b60008301856114f8565b61199860208301846112fd565b9392505050565b7f6e6f7420656e6f677568206c6971756964697479000000000000000000000000600082015250565b60006119d5601483611522565b91506119e08261199f565b602082019050919050565b60006020820190508181036000830152611a04816119c8565b905091905056fea2646970667358221220feac983782783a29b688a219671117968498491c2ca968e91388bcd1b6392b0d64736f6c634300080d0033",
  "linkReferences": {},
  "deployedLinkReferences": {}
}